:1000000045C0000060C000005EC000005CC0000091
:100010005AC0000058C0000056C0000054C0000084
:1000200052C0000050C000004EC000004CC0000094
:100030004BC0000048C0000046C0000044C00000A3
:1000400042C0000040C000003EC000003CC00000B4
:100050003AC0000038C0000036C0000034C00000C4
:1000600032C0000030C000002EC000002CC00000D4
:100070002AC0000028C0000026C0000024C00000E4
:1000800022C0000020C000001EC0000011241FBEBE
:10009000CFEFD0E1DEBFCDBF11E0A0E0B1E0EAE4F8
:1000A000F7E000E00BBF02C007900D92AE30B10741
:1000B000D9F721E0AEE0B1E001C01D92A631B20750
:1000C000E1F700D140C39CCF1F920F920FB60F9261
:1000D00011240BB60F922F933F938F939F93EF931F
:1000E000FF938091100190911101853191053CF0B1
:1000F00020911201309113012930310544F581E03E
:100100008BBD83EF8ABD8FE083B980910E01909102
:100110000F010196843091052CF490930F01809388
:100120000E0104C010920F0110920E01E0910E0119
:10013000F0910F01E85FFE4F808188BBE0910E01D6
:10014000F0910F01E050FF4F808182BB2BC045979B
:100150008B37914038F581E08BBD8BE88ABD8FEFFE
:1001600083B980910E0190910F0101968430910521
:100170002CF490930F0180930E0104C010920F0194
:1001800010920E01E0910E01F0910F01EC5FFE4F15
:10019000808188BBE0910E01F0910F01E85FFE4F76
:1001A000808182BBFF91EF919F918F913F912F9121
:1001B0000F900BBE0F900FBE0F901F901895A9982F
:1001C00025E02A95F1F70000A99A85E38A95F1F7D1
:1001D0000000A9981092890010928800E8E8F0E0E9
:1001E00005C080819181893E9D4F98F5989BF9CFFC
:1001F0001092890010928800E8E8F0E00AC080813F
:100200009181893E9D4F28F01092890010928800BC
:1002100002C09899F4CF609188007091890080E0C5
:1002200090E079D120E034E244E759E402D220E0C2
:1002300030E040E853E4FDD120E034E244E75BE401
:10024000D1D020E030E048E652E4CCD033D1CB012D
:10025000089580E090E008953E9A97B1892B87B980
:1002600086B1876086B9379A359A369A0895349B55
:10027000FECF84B195B108958FEF87BB9FE091BB0E
:1002800082B9A19AA098D19AD098EBE8F0E0808149
:1002900083608083EAE8F0E08081886180838081E8
:1002A000846080838FB583608FBD8EB588618EBD7D
:1002B0008FB580688FBD8EB584608EBD87B7806135
:1002C00087BF089566D0D8DF82E0C6DF81EE94E074
:1002D0009BBD8ABD90938700809386007894C5E586
:1002E000D5E1C5DF9093150180931401BC016151E4
:1002F0007109CE0101D262507109709313016093AC
:1003000012015DDF90931101809310012FEF81EEB8
:1003100094E0215080409040E1F700C00000E1CF20
:10032000DA9A85E08A95F1F70000DA988FE99FE084
:100330000197F1F700C000000895CF93C82F809176
:100340000C01883019F4CBBBEBDF0FC08BB38F707F
:100350009C2F907F890F8BBBE3DF8BB38F7090E175
:10036000C99F800D11248BBBDBDF8FE39FE10197D9
:10037000F1F700C00000CF910895D898DECF08951E
:1003800081E0FBDF8FE39FE10197F1F700C0000000
:1003900008952FEF80E792E0215080409040E1F7F0
:1003A00000C0000080910C01883019F48FEF8ABBE7
:1003B00003C08AB3806F8ABB8AB387608ABB1BBACB
:1003C000D99880910C01883019F488E3D6DF04C0F5
:1003D00082E0D3DF88E2D1DF8CE0CFDFD1DF86E0BF
:1003E000CCCF08950CD0EBC0E3D040F0DAD030F0A1
:1003F00021F45F3F19F0CCC0511115C1CFC0F0D02E
:1004000098F39923C9F35523B1F3951B550BBB27DB
:10041000AA2762177307840738F09F5F5F4F220F88
:10042000331F441FAA1FA9F333D00E2E3AF0E0E881
:1004300030D091505040E695001CCAF729D0FE2FCD
:1004400027D0660F771F881FBB1F2617370748075F
:10045000AB07B0E809F0BB0B802DBF01FF27935815
:100460005F4F2AF09E3F510568F092C0DCC05F3FAD
:10047000ECF3983EDCF3869577956795B795F795FD
:100480009F5FC9F7880F911D9695879597F90895F5
:10049000E1E0660F771F881FBB1F62177307840791
:1004A000BA0720F0621B730B840BBA0BEE1F88F7A0
:1004B000E095089504D06894B111B5C0089598D01E
:1004C00088F09F5790F0B92F9927B751A0F0D1F03D
:1004D000660F771F881F991F1AF0BA95C9F712C0C7
:1004E000B13081F09FD0B1E008959CC0672F782F84
:1004F0008827B85F39F0B93FCCF386957795679533
:10050000B395D9F73EF490958095709561957F4F9E
:100510008F4F9F4F0895E89409C097FB3EF4909544
:100520008095709561957F4F8F4F9F4F9923A9F0CC
:10053000F92F96E9BB279395F6958795779567955B
:10054000B795F111F8CFFAF4BB0F11F460FF1BC09F
:100550006F5F7F4F8F4F9F4F16C0882311F096E932
:1005600011C0772321F09EE8872F762F05C06623E0
:1005700071F096E8862F70E060E02AF09A95660F99
:10058000771F881FDAF7880F9695879597F9089552
:1005900097F99F6780E870E060E008959FEF80EC36
:1005A000089500240A9416161706180609060895D9
:1005B00000240A9412161306140605060895092E3F
:1005C0000394000C11F4882352F0BB0F40F4BF2BAE
:1005D00011F460FF04C06F5F7F4F8F4F9F4F0895EE
:1005E00057FD9058440F551F59F05F3F71F04795E4
:1005F000880F97FB991F61F09F3F79F087950895C9
:10060000121613061406551FF2CF4695F1DF08C0E7
:10061000161617061806991FF1CF86957105610504
:1006200008940895E894BB2766277727CB0197F9AC
:1006300008950BD0C4CFB5DF28F0BADF18F09523AA
:1006400009F0A6CFABCF1124EECFCADFA0F3959F60
:10065000D1F3950F50E0551F629FF001729FBB27A9
:10066000F00DB11D639FAA27F00DB11DAA1F649F55
:100670006627B00DA11D661F829F2227B00DA11D08
:10068000621F739FB00DA11D621F839FA00D611D8E
:10069000221F749F3327A00D611D231F849F600DAF
:1006A000211D822F762F6A2F11249F5750408AF0E8
:1006B000E1F088234AF0EE0FFF1FBB1F661F771F74
:1006C000881F91505040A9F79E3F510570F060CFB0
:1006D000AACF5F3FECF3983EDCF38695779567955C
:1006E000B795F795E7959F5FC1F7FE2B880F911D92
:1006F0009695879597F9089597FB072E16F4009421
:1007000006D077FD08D00BD007FC05D03EF49095BD
:1007100081959F4F0895709561957F4F0895AA1B0D
:10072000BB1B51E107C0AA1FBB1FA617B70710F0DC
:10073000A61BB70B881F991F5A95A9F7809590950E
:0A074000BC01CD010895F894FFCF2D
:0E074A000903060C090C060303060C09040043
:00000001FF
